:020000040800F2
:100000005024002095030008B1560008A1540008B0
:10001000AD560008ED0A0008515D00080000000020
:100020000000000000000000000000004B5B000822
:100030006D10000800000000B55600084D5B000878
:10004000B3030008B3030008B3030008B3030008B8
:10005000B3030008B3030008B3030008B3030008A8
:10006000B3030008B30300086F100008B3030008CF
:10007000F10A0008B3030008B3030008B303000843
:10008000B3030008B3030008B3030008B303000878
:10009000B3030008B3030008B3030008B303000868
:1000A000B3030008B3030008B3030008B303000858
:1000B000B3030008B3030008B3030008B303000848
:1000C000B3030008B3030008B30300088159000814
:1000D000B3030008B3030008B3030008B303000828
:1000E000B3030008B303000800000000B3030008D6
:1000F000B3030008B3030008B3030008B303000808
:10010000B3030008B3030008B3030008B3030008F7
:10011000B3030008B3030008B3030008B3030008E7
:10012000B3030008B3030008B3030008B3030008D7
:10013000B3030008B3030008B3030008B3030008C7
:1001400000000000000000000000000000000000AF
:10015000B3030008B3030008B3030008B3030008A7
:10016000B3030008B3030008B3030008B303000897
:10017000B3030008B3030008B3030008B303000887
:10018000B3030008B3030008B3030008B303000877
:10019000B3030008B3030008B3030008B303000867
:1001A000B3030008B3030008B3030008B303000857
:1001B000B3030008B3030008B3030008B303000847
:1001C000B3030008B3030008B3030008B303000837
:1001D000B3030008B3030008B3030008B303000827
:1001E000B3030008B3030008B3030008B303000817
:1001F000B3030008B3030008B3030008B303000807
:10020000B3030008B3030008B3030008B3030008F6
:10021000B3030008B3030008B3030008B3030008E6
:10022000B3030008B3030008B30300080000000094
:10023000B3030008B303000800000000B303000884
:10024000B3030008B3030008B3030008B3030008B6
:10025000B3030008B3030008B3030008B3030008A6
:10026000B3030008B3030008B3030008B303000896
:10027000B3030008B3030008B30300080000000044
:10028000B3030008B3030008B30300080000000034
:1002900000000000B303000800F002F800F06AF864
:1002A0000AA090E8000C82448344AAF10107DA45D1
:1002B00001D100F05FF8AFF2090EBAE80F0013F0B9
:1002C000010F18BFFB1A43F001031847FC5D000043
:1002D0002C5E00000A444FF0000C10F8013B13F0B4
:1002E000070408BF10F8014B1D1108BF10F8015B8F
:1002F000641E05D010F8016B641E01F8016BF9D182
:1003000013F0080F1EBF10F8014BAD1C0C1B09D1D8
:100310006D1E58BF01F801CBFAD505E014F8016B4A
:1003200001F8016B6D1EF9D59142D6D370470000DC
:10033000103A24BF78C878C1FAD8520724BF30C811
:1003400030C144BF04680C607047000000230024E3
:1003500000250026103A28BF78C1FBD8520728BFD5
:1003600030C148BF0B6070471FB505F09BFE1FBD35
:1003700010B510BD00F0D3F81146FFF7F5FF05F0FA
:10038000FFFD00F0F1F803B4FFF7F2FF03BC00F04B
:10039000F9F800000A4880470A4880470A480047A1
:1003A000FEE7FEE7FEE7FEE7FEE7FEE7FEE7FEE725
:1003B000FEE7FEE705480649064A074B704700007E
:1003C0007D100008295C00089902000850020020F6
:1003D000502400205004002050040020032A40F242
:1003E000308010F0030C00F0158011F8013BBCF1D7
:1003F000020F624498BF11F801CB00F8013B38BFEF
:1004000011F8013BA2F1040298BF00F801CB38BFFC
:1004100000F8013B11F0030300F04F80083AC0F0F0
:10042000088051F8043B083A51F804CBA0E80810C2
:10043000F5E7121D5CBF51F8043B40F8043BAFF3F5
:100440000080D20724BF11F8013B11F801CB48BF4F
:1004500011F8012B24BF00F8013B00F801CB48BF85
:1004600000F8012B70474FF0000200B51346944688
:100470009646203922BFA0E80C50A0E80C50B1F1FC
:100480002001BFF4F7AF090728BFA0E80C5048BF10
:100490000CC05DF804EB890028BF40F8042B08BFAE
:1004A000704748BF20F8022B11F0804F18BF00F8AA
:1004B000012B704770477047704710B5203AC0F065
:1004C0000B80B1E81850203AA0E81850B1E8185055
:1004D000A0E81850BFF4F5AF5FEA027C24BFB1E892
:1004E0001850A0E8185044BF18C918C0BDE8104003
:1004F0005FEA827C24BF51F8043B40F8043B08BF0C
:100500007047D20728BF31F8023B48BF11F8012BD2
:1005100028BF20F8023B48BF00F8012B7047754602
:1005200000F02CF8AE4605006946534620F007005F
:10053000854618B020B5FFF73DFFBDE820404FF0DD
:1005400000064FF000074FF000084FF0000B21F0BD
:100550000701AC46ACE8C009ACE8C009ACE8C0098A
:10056000ACE8C0098D46704710B50446AFF3008073
:100570002046BDE81040FFF706BF00000048704766
:10058000EC01002001491820ABBEFEE72600020066
:100590007047000010B50446012C06D0022C7AD01A
:1005A000032C76D0042C75D115E10221042000F033
:1005B00009FA0A2002F040F9FF210D2000F002FAAA
:1005C0000A2002F039F9FF210E2000F0FBF90A2081
:1005D00002F032F9FF210F2000F0F4F90A2002F0B6
:1005E0002BF90021102000F0EDF90A2002F024F987
:1005F0000021112000F0E6F90A2002F01DF9202167
:10060000152000F0DFF90A2002F016F9602105201C
:1006100000F0D8F90A2002F00FF96021062000F05E
:10062000D1F90A2002F008F96021072000F0CAF988
:100630000A2002F001F96021082000F0C3F90A2025
:1006400002F0FAF86021092000F0BCF90A2002F05B
:10065000F3F860210A2000F0B5F90A2002F0ECF866
:1006600060210B2000F0AEF90A2002F0E5F86021CD
:100670000C2000F0A7F90A2002F0DEF800F06AF979
:1006800000F0F8F800221021794802F0FDF9ECE0C2
:1006900001E057E0E8E0FF210D2000F093F90A2087
:1006A00002F0CAF8FF210E2000F08CF90A2002F0B7
:1006B000C3F82021152000F085F90A2002F0BCF8CB
:1006C0006021052000F07EF90A2002F0B5F86021D3
:1006D000062000F077F90A2002F0AEF8602107202A
:1006E00000F070F90A2002F0A7F86021082000F05D
:1006F00069F90A2002F0A0F86021092000F062F9EF
:100700000A2002F099F860210A2000F05BF90A2023
:1007100002F092F860210B2000F054F90A2002F058
:100720008BF860210C2000F04DF90A2002F084F8CB
:1007300000F010F900F09EF8002210214C4802F061
:10074000A3F992E0C021022000F03CF90A2002F057
:1007500073F80121052000F035F90A2002F06CF849
:100760000121062000F02EF90A2002F065F801218F
:10077000072000F027F90A2002F05EF80121082086
:1007800000F020F90A2002F057F80121092000F0BA
:1007900019F90A2002F050F801210A2000F012F99C
:1007A0000A2002F049F801210B2000F00BF90A2081
:1007B00002F042F801210C2000F004F90A2002F0B6
:1007C0003BF800F0C7F800F055F800221021284847
:1007D00002F05AF949E0D021022000F0F3F80A2093
:1007E00002F02AF80521084600F0ECF80A2002F091
:1007F00023F80521062000F0E5F80A2002F01CF895
:100800000521072000F0DEF80A2002F015F8052186
:10081000082000F0D7F80A2002F00EF80521092080
:1008200000F0D0F80A2002F007F805210A2000F0B5
:10083000C9F80A2002F000F805210B2000F0C2F8E8
:100840000A2001F0F9FF05210C2000F0BBF80A2076
:1008500001F0F2FF00F07EF800F00CF80022102109
:10086000034802F011F900E000BF00BF10BD000016
:100870000000025810B500221021064802F004F9C9
:10088000102000F01FF901221021024802F0FCF8AC
:1008900010BD00000000025810B5002210210748CA
:1008A00002F0F2F8062000F00DF9012001F0C4FF7B
:1008B00001221021014802F0E7F810BD00000258A3
:1008C00070B5044604F12000C5B2002210210B4887
:1008D00002F0DAF8284600F0F5F8002000F0F2F80F
:1008E000002000F0EFF806490855012210210348C6
:1008F00002F0CAF80248005D70BD00000000025816
:10090000D401002010B500221021074802F0BCF8E5
:10091000112000F0D7F801221021034802F0B4F8AA
:10092000012001F089FF10BD0000025810B500221F
:100930001021074802F0A8F8042000F0C3F80120B5
:1009400001F07AFF01221021014802F09DF810BD4C
:100950000000025810B500221021064802F094F859
:10096000082000F0AFF801221021024802F08CF8B4
:1009700010BD00000000025810B5002210210648EA
:1009800002F082F80A2000F09DF8012210210248AE
:1009900002F07AF810BD00000000025810B50022E5
:1009A0001021074802F070F8022000F08BF80122B5
:1009B0001021034802F068F8012001F03DFF10BD4E
:1009C0000000025870B504460D4604F14000C6B25E
:1009D00000221021094802F057F8304600F072F862
:1009E000002000F06FF8284600F06CF8012210217A
:1009F000024802F049F80248055570BD000002584F
:100A0000D401002010B50020FFF75AFF044620460D
:100A100010BD000070B504460D462848007820B18E
:100A2000002026490870FFF7B9FFA4F152000928F9
:100A300040D2DFE800F02D19233F3F0F3F3F050074
:100A4000284605F0A3F90120FFF7A4FD0A2002F0D3
:100A50002DF930E0284605F099F90220FFF79AFDBC
:100A60000A2002F023F926E0284605F08FF903203A
:100A7000FFF790FD0A2002F019F91CE0284605F066
:100A800085F90420FFF786FD0A2002F00FF912E035
:100A90000A2002F0E9F8FFF76FFFFFF76DFFFFF79D
:100AA00031FFFFF743FF064805F0F2F90120034943
:100AB000087000E000BF00BF70BD000014000020FF
:100AC000B80000203EB5044601946FF07F4001233A
:100AD00002AA01A90090044804F09CFA08B1FF2082
:100AE00002909DF808003EBDD400002000BFFEE744
:100AF00010B5024800F0A4FC10BD00005C0100200D
:100B00000146374A0868904249D0354A1832086889
:100B1000904244D0324A3032086890423FD0304A46
:100B20004832086890423AD02D4A603208689042B4
:100B300035D02B4A78320868904230D0284A90321B
:100B4000086890422BD0264AA8320868904226D0E6
:100B5000244A0868904222D0224A183208689042FB
:100B60001DD0204A30320868904218D01D4A4832C1
:100B70000868904213D01B4A6032086890420ED039
:100B8000184A78320868904209D0164A90320868AC
:100B9000904204D0134AA8320868904201D1012043
:100BA00000E00020B0B10A78103A1823B2FBF3F04D
:100BB00000F007020C4B9A5CCA65032805D90A6845
:100BC0006FF30902121D8A6503E00A686FF30902D8
:100BD0008A6503E0086820F0FF008865886D70472B
:100BE0001000024010040240AE60000810B5026818
:100BF0002B4C0368A34222D0294C14340368A3422F
:100C00001DD0274C28340368A34218D0244C3C3410
:100C10000368A34213D0224C50340368A3420ED081
:100C20001F4C64340368A34209D01D4C7834036818
:100C3000A34204D01A4C8C340368A34201D101238F
:100C400000E000238BB10378083B1424B3FBF4F1DC
:100C5000144B03EB81030366124B8033436601F0B0
:100C60001F040123A340836618E00378103B182477
:100C7000B3FBF4F10C4B9A4204D80B4BA83B9A42BD
:100C800000D30831094B03EB81030366074B803324
:100C9000436601F01F040123A340836610BD0000DA
:100CA0000854025800580258B80402400008024094
:100CB0000179A9B3082940D8204B02689A4222D072
:100CC0001E4B143302689A421DD01C4B2833026815
:100CD0009A4218D0194B3C3302689A4213D0174BF2
:100CE000503302689A420ED0144B643302689A4221
:100CF00009D0124B783302689A4204D00F4B8C33E0
:100D000002689A4201D1012200E000224AB14A1E43
:100D10000B4B03EB8202C266094A4032026708E0CD
:100D20000BE04A1E074B03EB8202C266054A4032C3
:100D300002674A1E012393404367704708540258D4
:100D40000059025800090240014600208A69D2B9C0
:100D50008A6A32B1012A0DD0022A03D0032A10D1A7
:100D60000EE000BFCA6A02F08072B2F1807F00D14B
:100D7000012007E0CA6AB2F1C07F00D1012001E082
:100D800000E000BF36E08A69B2F5005F1BD18A6AD5
:100D900032B1012A07D0022A03D0032A11D10AE076
:100DA00000BF01200EE0CA6A02F08072B2F1807FBB
:100DB00000D1012006E0CA6AB2F1C07F00D1012053
:100DC00000E000BF16E08A6A32B1012A05D0022A8B
:100DD00004D0032A0CD103E000BF00BF012008E0CB
:100DE000CA6A02F08072B2F1807F00D1012000E077
:100DF00000BF00BF70470000F0B5856D846D984F4F
:100E00000668BE4270D0964F18370668BE426BD057
:100E1000934F30370668BE4266D0914F4837066818
:100E2000BE4261D08E4F60370668BE425CD08C4FA8
:100E300078370668BE4257D0894F90370668BE4261
:100E400052D0874FA8370668BE424DD0854F0668FE
:100E5000BE4249D0834F18370668BE4244D0814F06
:100E600030370668BE423FD07E4F48370668BE42E4
:100E70003AD07C4F60370668BE4235D0794F78371C
:100E80000668BE4230D0774F90370668BE422BD0FE
:100E9000744FA8370668BE4226D0734F0668BE421C
:100EA00022D0714F14370668BE421DD06E4F2837CE
:100EB0000668BE4218D06C4F3C370668BE4213D05D
:100EC000694F50370668BE420ED0674F64370668D8
:100ED000BE4209D0644F78370668BE4204D0624FE4
:100EE0008C370668BE4201D1012600E000263EB1E3
:100EF000D0E919767E60C66E16B1D0E91C767E60A8
:100F0000574F0668BE4249D0554F18370668BE4253
:100F100044D0534F30370668BE423FD0504F483719
:100F20000668BE423AD04E4F60370668BE4235D0A2
:100F30004B4F78370668BE4230D0494F903706682D
:100F4000BE422BD0464FA8370668BE4226D0454F3A
:100F50000668BE4222D0434F18370668BE421DD0F5
:100F6000404F30370668BE4218D03E4F48370668BB
:100F7000BE4213D03B4F60370668BE420ED0394F99
:100F800078370668BE4209D0364F90370668BE42B1
:100F900004D0344FA8370668BE4201D1012600E0D4
:100FA0000026DEB190F85C6006F01F073F26BE40C9
:100FB000AE600668366826F4802607683E600668DC
:100FC00073608668402E04D10668B2600668F160DE
:100FD00044E00668B1600668F2603FE0224F0668B0
:100FE000BE4222D0204F14370668BE421DD01E4F8D
:100FF00028370668BE4218D01B4F3C370668BE42F1
:1010000013D0194F50370668BE420ED0164F6437C2
:101010000668BE4209D0144F78370668BE4204D035
:10102000114F8C370668BE4201D1012600E0002630
:10103000A6B190F85C6006F01F070126BE4066600E
:10104000066873608668402E04D10668B260066840
:10105000F16003E00668B1600668F260F0BD000070
:10106000100002401004024008540258704710B5A6
:10107000102001F0FDFB10BD00BFFEE7074800682F
:1010800040F002000549086000BF044808380068C5
:1010900000F400500028F8D0704700000C480258B7
:1010A00070B504460CB9012070BD94F835000228D3
:1010B00003D0802060650120F6E7DC492068884283
:1010C00049D0DA4918312068884244D0D7493031B4
:1010D000206888423FD0D5494831206888423AD0BC
:1010E000D24960312068884235D0D04978312068B3
:1010F000884230D0CD499031206888422BD0CB49EE
:10110000A8312068884226D0C9492068884222D068
:10111000C7491831206888421DD0C5493031206840
:10112000884218D0C24948312068884213D0C0494B
:101130006031206888420ED0BD49783120688842ED
:1011400009D0BB4990312068884204D0B849A83101
:101150002068884201D1012000E00020F0B3042083
:1011600084F83500B149206888424BD0AF49183126
:101170002068884246D0AD4930312068884241D04D
:10118000AA494831206888423CD0A849603120688B
:10119000884237D0A54978312068884232D0A349A7
:1011A0009031206888422DD0A049A831206888421B
:1011B00028D09F492068884224D09D491831206852
:1011C00088421FD09A493031206888421AD0984905
:1011D00048312068884215D0954900E020E0603110
:1011E000206888420ED0924978312068884209D020
:1011F0008F4990312068884204D08D49A8312068F9
:10120000884206D12068006820F00100216808604B
:1012100009E12068006820F001002168086002E10F
:101220002068006820F00E00216808607F4920686F
:10123000884249D07D4918312068884244D07B4992
:101240003031206888423FD0784948312068884250
:101250003AD0764960312068884235D07349783178
:101260002068884230D071499031206888422BD064
:101270006E49A8312068884226D06D49206888428E
:1012800022D06B491831206888421DD0684930311E
:101290002068884218D0664948312068884213D0B7
:1012A00063496031206888420ED0614978312068F6
:1012B000884209D05E4990312068884204D05C4958
:1012C000A8312068884206D12068006820F001001B
:1012D0002168086005E02068006820F001002168AE
:1012E000086052492068884270D0504918312068FF
:1012F00088426BD04D4930312068884266D04B49D6
:1013000048312068884261D048496031206888426D
:101310005CD0464978312068884257D043499031A3
:101320002068884252D04149A831206888424DD077
:101330003F492068884249D03D4918312068884299
:1013400044D03B493031206888423FD03849483149
:10135000206888423AD0364960312068884235D0CA
:10136000334978312068884230D031499031206843
:1013700088422BD02E49A8312068884226D02D499A
:101380002068884222D02B491431206888421DD021
:10139000284928312068884218D026493C312068E5
:1013A000884213D023495031206888420ED0214909
:1013B00064312068884209D01E497831206888420B
:1013C00004D01C498C312068884201D1012000E002
:1013D0000020D8B1206E006820F48070216E086073
:1013E000A56D94F85C0000F01F0101208840686042
:1013F000D4E919104860E06E40B1E06E006820F456
:101400008070E16E0860D4E91C104860012084F807
:10141000350000BF002084F8340000BF206D10B1FB
:101420002046216D884700203EE600001000024063
:1014300010040240085402580146486D70470000ED
:101440002DE9F84F044600200090FE4800684FF454
:101450001651B0FBF1FAA66DD4F858803768D8F869
:101460000090F9492068884249D0F749183120682E
:10147000884244D0F4493031206888423FD0F24954
:101480004831206888423AD0EF496031206888426C
:1014900035D0ED4978312068884230D0EA49903122
:1014A000206888422BD0E849A8312068884226D09D
:1014B000E6492068884222D0E449183120688842F1
:1014C0001DD0E24930312068884218D0DF494831C8
:1014D0002068884213D0DD496031206888420ED0F0
:1014E000DA4978312068884209D0D849903120689B
:1014F000884204D0D549A8312068884201D1012012
:1015000000E0002000287DD094F85C0000F01F016E
:10151000082088403840002868D0CB49206888429D
:1015200049D0C94918312068884244D0C649303171
:10153000206888423FD0C4494831206888423AD068
:10154000C14960312068884235D0BF497831206870
:10155000884230D0BC499031206888422BD0BA49AB
:10156000A8312068884226D0B8492068884222D015
:10157000B6491831206888421DD0B44930312068FE
:10158000884218D0B14948312068884213D0AF4909
:101590006031206888420ED0AC497831206888429A
:1015A00009D0AA4990312068884204D0A749A831BF
:1015B0002068884204D12068006800F0040003E03D
:1015C0002068006800F0080080B12068006820F002
:1015D00004002168086094F85C0000F01F010820F6
:1015E0008840B060606D40F00100606594F85C0078
:1015F00000F01F01012088403840E8B3924920687C
:10160000884200E0B7E24BD08F4918312068884209
:1016100046D08D4930312068884241D08A494831CE
:10162000206888423CD0884960312068884237D0A1
:10163000854978312068884232D0834990312068CA
:1016400088422DD08049A8312068884228D07F491F
:101650002068884224D07D491831206888421FD0F4
:101660007A493031206888421AD078494831206858
:10167000884215D0754900E026E060312068884234
:101680000ED0724978312068884209D06F49903174
:101690002068884204D06D49A8312068884204D16E
:1016A0002068406900F0800002E0206800680020A7
:1016B00050B194F85C0000F01F0101208840B06038
:1016C000606D40F00200606594F85C0000F01F015E
:1016D000042088403840E8B35B49206888424BD0FA
:1016E000594918312068884246D05749303120681E
:1016F000884241D054494831206888423CD0524900
:1017000060312068884237D04F497831206888425C
:1017100032D04D499031206888422DD04A49A831B5
:101720002068884228D049492068884224D0474907
:101730001831206888421FD04449303120688842DF
:101740001AD0424948312068884215D03F4960315B
:10175000206800E024E088420ED03C4978312068BF
:10176000884209D0394990312068884204D03749ED
:10177000A8312068884204D12068006800F0020087
:1017800002E020680068002050B194F85C0000F08E
:101790001F0104208840B060606D40F00400606567
:1017A00094F85C0000F01F01102088403840E8B336
:1017B00025492068884251D0234918312068884241
:1017C0004CD0214930312068884247D01E494831E9
:1017D0002068884242D01C496031206888423DD050
:1017E000194978312068884238D0174990312068EB
:1017F000884233D01449A831206888422ED013493A
:10180000206888422AD0114918312068884225D0A2
:101810000E4930312068884220D00C494831206878
:1018200088421BD009496031206800E04DE08842C1
:1018300014D006497831206888420FD0034990318E
:10184000206805E00C000020100002401004024057
:10185000884203D0FE492068884204D1206800688D
:1018600000F0080003E02068006800F0040060B3A6
:1018700094F85C0000F01F0110208840B0602068E0
:10188000006800F4802080B12068006800F4002027
:1018900028B9206CC8B12046216C884715E0A06C9F
:1018A00098B12046A16C88470FE02068006800F4DA
:1018B000807028B92068006820F00800216808605E
:1018C000206C10B12046216C884794F85C0000F031
:1018D0001F0120208840384000287DD0DD49206845
:1018E000884249D0DB4918312068884244D0D94920
:1018F0003031206888423FD0D6494831206888423C
:101900003AD0D44960312068884235D0D149783105
:101910002068884230D0CF499031206888422BD04F
:10192000CC49A8312068884226D0C949A839206806
:10193000884221D0C6499039206888421CD0C449C9
:1019400078392068884217D0C149603920688842B8
:1019500012D0BF494839206888420DD0BC4930397F
:101960002068884208D0BA4918392068884203D0D4
:10197000B7492068884204D12068006800F0100050
:1019800003E02068006800F0020028B394F85C00CF
:1019900000F01F0120208840B06094F83500042832
:1019A0002DD12068006820F01600216808602068AA
:1019B000406920F0800021684861206C08B9A06C63
:1019C00028B12068006820F008002168086094F8B9
:1019D0005C0000F01F0100E03FE03F208840B06065
:1019E000012084F8350000BF002084F8340000BFD7
:1019F000206D10B12046216D8847BDE8F88F206822
:101A0000006800F4802080B12068006800F40020A5
:101A100028B9606C08B32046616C88471DE0E06B14
:101A2000D8B12046E16B884717E02068006800F4D1
:101A3000807068B92068006820F010002168086094
:101A4000012084F8350000BF002084F8340000BF76
:101A5000E06B10B12046E16B8847606D00287AD0BA
:101A6000606D00F00100E8B3042084F83500794986
:101A7000206888424BD0774918312068884246D088
:101A8000744930312068884241D072494831206819
:101A900088423CD06F4960312068884237D06D4918
:101AA00078312068884232D06A4990312068884273
:101AB0002DD06849A8312068884228D06449A839C7
:101AC0002068884223D062499039206888421ED01D
:101AD0005F4978392068884219D05D4960392068AB
:101AE000884200E040E012D05949483920688842D5
:101AF0000DD0574930392068884208D054491839E8
:101B00002068884203D052492068884206D1206864
:101B1000006820F001002168086005E02068006886
:101B200020F001002168086000BF0098401C009070
:101B3000504500D905E02068006800F00100002849
:101B4000F3D100BF2068006800F0010020B103203D
:101B500084F8350003E00DE0012084F8350000BF73
:101B6000002084F8340000BFE06C002802D020463A
:101B7000E16C8847D9E138492068884222D036494B
:101B80001431206888421DD03349283120688842AA
:101B900018D031493C312068884213D02E49503149
:101BA000206888420ED02C4964312068884209D0D0
:101BB000294978312068884204D027498C3120682F
:101BC000884201D1012000E000200028D2D0206806
:101BD000056894F85C0000F01F010420884000EACA
:101BE0000900D8B305F00400C0B394F85C0000F01D
:101BF0001F0104208840C8F8040005F4004080B1AB
:101C000005F4803030B9A06C0028B3D02046A16C18
:101C100088478AE1206C0028ACD02046216C884798
:101C200083E105F02000E8BB0A492068884253D0D0
:101C300008491831206888424ED006493031206862
:101C4000884249D0034948312068884244D006E0A0
:101C5000B804024010000240085402584FE0B44952
:101C600060312068884237D0B14978312068884295
:101C700032D0AF499031206888422DD0AC49A8318C
:101C80002068884228D0AB492068884224D0A949DE
:101C90001831206888421FD0A64930312068884218
:101CA0001AD000E025E0A34948312068884213D0CB
:101CB000A0496031206888420ED09E497831206862
:101CC000884209D09B4990312068884204D09949C4
:101CD000A8312068884206D12068006820F00800FA
:101CE0002168086005E02068006820F00400216891
:101CF0000860206C10B32046216C884715E194F8E9
:101D00005C0000F01F010220884000EA0900E8B3EF
:101D100005F00200D0B394F85C0000F01F0102202F
:101D20008840C8F8040005F4004070B105F4803024
:101D300028B9606C10B12046616C8847F5E0E06B13
:101D4000F0B32046E16B8847EFE005F02000C0BB10
:101D50007749206888424ED07549183120688842FA
:101D600049D0734930312068884244D070494831A5
:101D7000206888423FD06E496031206888423AD05E
:101D80006B4978312068884235D000E04EE06849E0
:101D90009031206888422ED06549A8312068884259
:101DA00029D064492068884225D0624918312068CA
:101DB000884220D05F493031206888421BD001E042
:101DC0006EE02DE05B4948312068884213D05949C4
:101DD0006031206888420ED05649783120688842A8
:101DE00009D0544990312068884204D05149A83123
:101DF0002068884206D12068006820F0140021681D
:101E0000086005E02068006820F00A00216808608A
:101E1000012084F8350000BF002084F8340000BFA2
:101E2000E06BE8B32046E16B88477EE094F85C0005
:101E300000F01F010820884000EA090080B305F087
:101E4000080068B33A49206888424BD038491831B5
:101E50002068884246D0364930312068884241D0D7
:101E600033494831206888423CD03149603120688C
:101E7000884237D02E4978312068884232D02C49A8
:101E80009031206888422DD02949A83120688842A5
:101E900028D028492068884224D02649183100E0FB
:101EA00043E0206888421DD02249303120688842B2
:101EB00018D0204948312068884213D01D4960312C
:101EC000206888420ED01B4978312068884209D0AA
:101ED000184990312068884204D01649A8312068FA
:101EE000884206D12068006820F01C002168086044
:101EF00005E02068006820F00E002168086094F872
:101F00005C0000F01F0101208840C8F80400012097
:101F1000606584F8350000BF002084F8340000BFFD
:101F2000E06C10B12046E16C884700BF65E5000019
:101F300010000240100402402DE9F041044600F078
:101F4000AFFD804614B90120BDE8F081FE4920684C
:101F5000884249D0FC4918312068884244D0FA4967
:101F60003031206888423FD0F749483120688842A4
:101F70003AD0F54960312068884235D0F24978314D
:101F80002068884230D0F0499031206888422BD0B8
:101F9000ED49A8312068884226D0EC492068884263
:101FA00022D0EA491831206888421DD0E7493031F3
:101FB0002068884218D0E54948312068884213D00B
:101FC000E2496031206888420ED0E04978312068CB
:101FD000884209D0DD4990312068884204D0DB492D
:101FE000A8312068884201D1012000E000200028AB
:101FF00073D0606A00B100BF022084F8350000BFD2
:10200000002084F8340000BFCF492068884249D0BE
:10201000CD4918312068884244D0CB4930312068FE
:1020200088423FD0C8494831206888423AD0C649E2
:1020300060312068884235D0C349783120688842B1
:1020400030D0C1499031206888422BD0BE49A83198
:102050002068884226D0BD492068884222D0BB49EA
:102060001831206888421DD0B84930312068884234
:1020700018D0B64948312068884213D0B34960313E
:10208000206888420ED0B14978312068884209D052
:10209000AE4990312068884204D0AC49A83120680C
:1020A000884206D12068006820F00100216808609D
:1020B00005E02068006820F00100216808600DE05C
:1020C00000F0EEFCA0EB0800052807D92020606591
:1020D000032084F83500012036E76AE020680068B4
:1020E00000F001000028EBD1206805689848054001
:1020F000D4E9020108432169084361690843A169E1
:102100000843E1690843216A08430543606A0428DB
:1021100003D1D4E90B01084305438E4800686FF3EF
:102120000F00B0F1005F1DD36068292802D36068FA
:102130002E2811D960683F2802D3606842280BD945
:102140006068472802D36068482805D960684F282E
:1021500004D36068522801D8012000E0002008B1B3
:1021600045F48015206805602068456925F007055D
:10217000606A0543606A04280DD1A06A0543E06ADD
:1021800048B12046FEF7E0FD28B1402060650120FF
:1021900084F83500D8E6206845612046FEF7B0FC9B
:1021A000064694F85C0000F01F013F208840B060B4
:1021B0009EE069492068884222D06749143120682E
:1021C00088421DD0644928312068884218D062496D
:1021D0003C312068884213D05F49503120688842E2
:1021E0000ED05D4964312068884209D05A4978315F
:1021F0002068884204D058498C312068884201D137
:10220000012000E00020E0B353492068884222D03A
:1022100051491431206888421DD04F492831206827
:10222000884218D04C493C312068884213D04A4932
:102230005031206888420ED0474964312068884276
:1022400009D0454978312068884204D042498C3110
:102250002068884201D1012000E0002000B100BFC9
:10226000022084F8350000BF002084F8340000BF4D
:102270002068056839480540A068402802D110212F
:1022800006E02EE0A068802801D1C10100E0002115
:10229000E06841EAD001206941EAD001606941EA81
:1022A000D001A06941EAD001E06941EAD001206A89
:1022B00041EA101005432068056027492068401A4C
:1022C0001421B0FBF1F08000E0652046FEF718FC19
:1022D000074694F85C0000F01F01012088407860F8
:1022E00006E040206065032084F8350001202BE6DD
:1022F0001549206888427FD01349183120688842E8
:102300007AD0114930312068884275D00E49483161
:102310002068884270D00C496031206888426BD0B8
:10232000094978312068884266D007499031206891
:10233000884261D00449A831206888425CD00349B2
:102340002068884258D00BE0100002401004024080
:102350003F8010FE0010005C085402580F00FEFF82
:102360003B4918312068884246D0394930312068CD
:10237000884241D036494831206888423CD03449AF
:1023800060312068884237D03149783120688842EE
:1023900032D02F499031206888422DD02C49A83165
:1023A0002068884228D02B492068884224D02949B7
:1023B0001431206888421FD026492831206888427D
:1023C0001AD024493C312068884215D02149503127
:1023D0002068884210D01F496431206888420BD0A1
:1023E0001C4978312068884206D01A498C3120680F
:1023F000884200E000E001D1012000E0002000B3AD
:102400002046FEF7F3FBA068802801D10020606021
:102410002079216E0860D4E919104860606860B1C5
:102420006068082809D82046FEF742FC0020E16ECB
:102430000860D4E91C10486003E00020E0662067D3
:10244000606700206065012084F8350000207BE58E
:1024500010040240085402582DE9F04104460D468C
:1024600016461F464FF0000814B90120BDE8F08160
:1024700000BF94F83400012801D10220F6E70120C2
:1024800084F8340000BF94F8350001287ED1022082
:1024900084F8350000206065E4492068884249D00E
:1024A000E24918312068884244D0E0493031206840
:1024B00088423FD0DD494831206888423AD0DB4924
:1024C00060312068884235D0D84978312068884208
:1024D00030D0D6499031206888422BD0D349A831DA
:1024E0002068884226D0D2492068884222D0D0492C
:1024F0001831206888421DD0CD493031206888428B
:1025000018D0CB4948312068884213D0C84960317F
:10251000206888420ED0C64978312068884209D0A8
:10252000C34990312068884204D0C149A83120684D
:10253000884206D12068006820F001002168086008
:1025400005E02068006820F00100216808603B4633
:10255000324629462046FEF74FFCB449206888429F
:102560004BD0B24918312068884246D0AF4930314B
:102570002068884241D0AD494831206888423CD02B
:10258000AA4960312068884237D000E042E1A7497B
:1025900078312068884230D0A44990312068884240
:1025A0002BD0A249A8312068884226D0A0492068B3
:1025B000884222D09E491831206888421DD09C490B
:1025C00030312068884218D09949483120688842C3
:1025D00013D097496031206888420ED094497831F1
:1025E0002068884209D0924990312068884204D0FE
:1025F0008F49A8312068884201D1012000E00020E5
:1026000080B12068006820F01E0040F016002168AC
:102610000860206CB0B12068006840F008002168B4
:1026200008600FE02068006820F00E0040F00A000B
:1026300021680860206C28B12068006840F0040020
:102640002168086079492068884270D0774918313C
:10265000206888426BD0754930312068884266D046
:10266000724948312068884261D0704960312068E1
:1026700088425CD06D4978312068884257D06B49D8
:1026800090312068884252D06849A8312068884239
:102690004DD067492068884249D065491831206883
:1026A000884244D062493031206888423FD0604936
:1026B0004831206888423AD05D49603120688842BC
:1026C00035D05B4978312068884230D05849903104
:1026D000206888422BD05649A8312068884226D0ED
:1026E00054492068884222D05249143120688842D7
:1026F0001DD0504928312068884218D04D493C31BE
:102700002068884213D04B495031206888420ED04F
:10271000484964312068884209D0464978312068A8
:10272000884204D043498C312068884201D101207D
:1027300000E0002090B1206E006800F4803028B1E5
:10274000206E006840F48070216E0860E06E28B151
:10275000E06E006840F48070E16E086033492068E4
:10276000884249D0314918312068884244D02F49E5
:102770003031206888423FD02C4948312068884257
:102780003AD02A4960312068884235D027497831CB
:102790002068884230D025499031206888422BD06B
:1027A0002249A8312068884226D0214920688842E1
:1027B00022D01F491831206888421DD01C49303171
:1027C0002068884218D01A4948312068884213D0BE
:1027D00017496031206888420ED015497831206849
:1027E000884209D0124990312068884204D01049AB
:1027F000A8312068884206D12068006840F00100B6
:102800002168086010E02068006840F0010021683D
:10281000086009E04FF40060606500BF002084F8A4
:10282000340000BF4FF0010840461FE61000024090
:10283000100402400854025870B5044600F030F904
:1028400006462546681C10B104480078054400BFC0
:1028500000F026F9801BA842FAD370BD08000020C2
:1028600010B50446102C01D103F0CCFB10BD0000C4
:1028700010B5044604480068204020B102480460B6
:102880002046FFF7EDFF10BD88000058F8B502465E
:102890000B4600216F4DD7E001278F401E6806EAE6
:1028A0000704002C72D01E7906F00306012E04D016
:1028B0001E7906F00306022E13D190684F000326FE
:1028C000BE40B0434F00DE68BE4030439060506869
:1028D00001268E40B0431E79C6F300168E40304369
:1028E00050601E7906F00306032E09D0D0684F0011
:1028F0000326BE40B0434F009E68BE403043D060C8
:102900001E7906F00306022E13D1CF0802F120062D
:1029100056F827004E07F70E0F26BE40B0434F076C
:10292000FF0E1E69BE403043CF0802F1200646F874
:10293000270010684F000326BE40B0431E7906F002
:1029400003064F00BE40304310605E6806F4403618
:10295000002E78D000BF404E366846F002063E4F4B
:102960003E603E46366806F00206009600BF00BF95
:102970003A4E8F0856F827008E07370F0F26BE40B5
:10298000B043374EB24202D100262EE05BE0354E16
:10299000B24201D1012628E0334EB24201D10226D3
:1029A00023E0324EB24201D103261EE0304EB24245
:1029B00001D1042619E02F4EB24201D1052614E0C0
:1029C0002D4EB24201D106260FE02C4EB24201D16B
:1029D00007260AE02A4EB24201D1082605E0294E18
:1029E000B24201D1092600E00A268F073F0FBE4000
:1029F00030431A4E8F0846F827004FF0B046306833
:102A0000A0435E6806F4801606B120434FF0B0463E
:102A100030607068A0435E6806F4001606B120437B
:102A20004FF0B04670606868A0435E6806F40036F8
:102A300006B1204368602868A0435E6806F48036CB
:102A400006B120432860491C1E68CE40002E7FF44A
:102A500023AFF8BD80000058F44402580804005821
:102A6000000002580004025800080258000C0258E6
:102A7000001002580014025800180258001C025896
:102A800000200258002402580AB1816101E00B04C1
:102A90008361704701480068000C70470010005CBB
:102AA00001480068704700000000002003480068EB
:102AB0000349097808440149086070470000002074
:102AC0000800002010B5032000F042F901F0C8F919
:102AD00010490968C1F303210F4A515C01F01F013D
:102AE00020FA01F40B48006800F00F001146085C62
:102AF00000F01F0024FA00F008490860084804604C
:102B0000002000F00FF808B1012010BD00F09AF885
:102B10000020FAE718440258B660000810000020B0
:102B20000C00002070B504461148007808B9012057
:102B300070BD0F4800784FF47A71B1FBF0F00D4989
:102B40000968B1FBF0F5284602F090FC08B10120BD
:102B5000EEE7102C07D200222146501E00F0BAF8F2
:102B60000548046001E00120E2E70020E0E7000002
:102B7000080000200C000020040000204178154AC5
:102B8000116014490831096821F00101114A083225
:102B90001160121F41681160017B0907C27A41EA86
:102BA0000261827A41EAC241427B41EA8241827BF0
:102BB00041EA4241C27B41EA0241427A41EA0221B2
:102BC000027A41EA420102781143024A0832116056
:102BD0007047000098ED00E000BF00BF00BFBFF3EA
:102BE0005F8F00BF00BF00BF0548006820F4803041
:102BF00003490860002002497031086070470000F6
:102C000024ED00E040F001010D4A11600C497039DB
:102C1000096841F480310A4A703A116000BF00BF70
:102C200000BFBFF34F8F00BF00BF00BF00BF00BF9A
:102C300000BFBFF36F8F00BF00BF00BF7047000031
:102C400094ED00E008B500BF0648006840F00200BF
:102C5000044908600846006800F00200009000BFC8
:102C600000BF08BDF444025810B5014608460028CC
:102C700017DB00F01F0301229A400B4B440943F875
:102C8000242000BF00BF00BFBFF34F8F00BF00BFB5
:102C900000BF00BF00BF00BFBFF36F8F00BF00BF0A
:102CA00000BF00BF10BD000080E100E00146084603
:102CB00000280DDB00BF00BF00F01F0301229A4077
:102CC00043099B0003F1E023C3F8002100BF00BFCC
:102CD00000BF70472DE9F05F80460D46164603F0B1
:102CE00039F8074639462A46334601F00700C0F155
:102CF000070ABAF1040F02D94FF0040A01E0C0F14B
:102D0000070AD14600F1040ABAF1070F02D24FF0C8
:102D1000000A01E0A0F1030AD4464FF0010A0AFAC2
:102D200009FAAAF1010A0AEA020A0AFA0CFA4FF0B1
:102D3000010B0BFA0CFBABF1010B0BEA030B4AEA9C
:102D40000B042146404603F00DF8BDE8F09F00005B
:102D500000BF00F00702064B19684FF6FF03194049
:102D6000044B0B4343EA0221014B196000BF70473B
:102D70000CED00E00000FA0570B504461548006847
:102D8000C0F3800048B91348006800F00700A04273
:102D900001D0012070BD0020FCE70E48006820F043
:102DA000070020430B490860FFF77AFE054607E05D
:102DB000FFF776FE401BB0F57A7F01D90120E9E7E5
:102DC000044808380068C0F340300028F0D00020E4
:102DD000E0E700000C4802582DE9F04104460025C8
:102DE000A8464FF00062D4E90010114000201346BD
:102DF00059404040014331D1A06E48B1B0F5801F29
:102E00000DD0B0F5001F11D0B0F5401F16D114E061
:102E1000F948006840F40030F749086010E00221EA
:102E200004F1080002F048FC054609E0022104F123
:102E3000280002F0F3FC054602E001E0012500BF96
:102E400000BF55B9EC482430006820F44010A16E52
:102E50000843E9492431086000E0A8464FF4807334
:102E6000D4E90010194000205940404001432ED1C0
:102E7000A06D05281BD2DFE800F0030A1118190025
:102E8000DD48006840F40030DB49086011E00021B3
:102E900004F1080002F010FC05460AE0002104F1EC
:102EA000280002F0BBFC054603E002E001E001253A
:102EB00000BF00BF55B9D0482430006820F007009B
:102EC000A16D0843CC492431086000E0A8464FF4C6
:102ED0000073D4E9001019400020594040400143DC
:102EE00034D1E06D802818D003DC40B140281DD1DA
:102EF0000CE0C02818D0B0F5807F17D115E0BE488F
:102F0000006840F40030BC49086011E0002104F181
:102F1000080002F0D1FB05460AE0002104F1280078
:102F200002F07CFC054603E002E001E0012500BF61
:102F300000BF55B9B0482430006820F4E070E16D5E
:102F40000843AD492431086000E0A8464FF480638F
:102F5000D4E900101940002059404040014339D1C4
:102F6000D4F8A800B0F5800F1AD004DC50B1B0F549
:102F7000001F1ED10DE0B0F5C00F18D0B0F5000F46
:102F800017D115E09C48006840F400309A49086069
:102F900011E0002104F1080002F08EFB05460AE072
:102FA000002104F1280002F039FC054603E002E0AC
:102FB00001E0012500BF00BF5DB98F482C300068DB
:102FC00020F46000D4F8A81008438B492C31086025
:102FD00000E0A8464FF40062D4E900101140002040
:102FE000134659404040014339D1D4F8AC00B0F108
:102FF000007F1AD004DC50B1B0F1807F1ED10DE00B
:10300000B0F1407F18D0B0F1806F17D115E07A4849
:10301000006840F400307849086011E0002104F1B4
:10302000080002F049FB05460AE0002104F12800EF
:1030300002F0F4FB054603E002E001E0012500BFD9
:1030400000BF5DB96C482C30006820F0E060D4F817
:10305000AC10084368492C31086000E0A8464FF0E6
:103060000073D4E90001184000215840494008434A
:1030700028D1E06CA8B1102804D0202809D030282D
:1030800010D10DE05C48006840F400305A490860F7
:103090000AE0022104F1080002F00EFB054603E0FD
:1030A00002E001E0012500BF00BF55B952482030C1
:1030B000006820F03000E16C08434F49203108607F
:1030C00000E0A8464FF48053D4E9001019400020D6
:1030D00059404040014337D1206EB0F5005F1AD00F
:1030E00004DC50B1B0F5805F1ED10DE0B0F5405F5B
:1030F00018D0B0F5804F17D115E03F48006840F474
:1031000000303D49086011E0002104F1080002F0A0
:10311000D3FA05460AE0002104F1280002F07EFB04
:10312000054603E002E001E0012500BF00BF55B9FC
:1031300031482430006820F4E040216E08432E49D5
:103140002431086000E0A8464FF40053D4E9001091
:103150001940002059404040014335D1606EB0F520
:10316000403F1ED007DC68B1B0F5803F0BD0B0F512
:10317000003F19D10EE0B0F5802F13D0B0F5A02F8D
:1031800012D110E012E0012104F1080002F094FADB
:1031900005460BE0012104F1280002F03FFB054643
:1031A00004E003E002E001E0012500BF00BF55B9E3
:1031B00011482430006820F4E020616E08430E4975
:1031C0002431086000E0A8464FF48043D4E90001B0
:1031D0001840002158404940084337D1D4F8B00086
:1031E000B0F1405F20D009DC78B1B0F1805F0DD044
:1031F000B0F1005F1BD110E02C440258B0F1804FB9
:1032000013D0B0F1A04F12D110E012E0012104F16F
:10321000080002F051FA05460BE0012104F12800F4
:1032200002F0FCFA054604E003E002E001E00125BB
:1032300000BF00BF4DB9FE48006820F0E040D4F860
:10324000B0100843FA49086000E0A8464FF4004275
:10325000D4E900101140002013465940404001437A
:1032600029D1206FB0B1B0F1805F03D0B0F1005F21
:1032700011D108E0EE482C38006840F40030EC49E9
:103280002C39086009E0012104F1080002F014FA69
:10329000054602E001E0012500BF00BF55B9E44842
:1032A0000838006820F04050216F0843E049083991
:1032B000086000E0A8464FF08072D4E90010114089
:1032C000002013465940404001432AD1A06CB8B1B8
:1032D000012804D002280BD0032812D10FE0D448D3
:1032E0002C38006840F40030D1492C3908600AE0DD
:1032F000022104F1080002F0DFF9054603E002E0D4
:1033000001E0012500BF00BF55B9C9480C3800686D
:1033100020F00300A16C0843C5490C39086000E0A7
:10332000A8464FF48002D4E9000110400021134662
:103330005840494008437DD1BE48006840F4807041
:10334000BC490860FFF7ACFB064606E0FFF7A8FBA8
:10335000801B642801D9032505E0B648006800F405
:1033600080700028F2D000BF85BBB14818300068DB
:1033700000F44070B4F8B41001F44071884213D0E6
:10338000AB481830006820F44077A948183000682E
:1033900040F48030A649183108600846006820F4DF
:1033A0008030086008460760D4F8B400B0F5807F2C
:1033B00015D1FFF775FB064609E0FFF771FB801B8F
:1033C00041F28831884202D9032507E038E0984865
:1033D00018300068C0F340000028EED000BF55BB95
:1033E00000BFB4F8B40000F44070B0F5407F0ED1D7
:1033F0008F484838006820F47C518F4AD4F8B400D4
:10340000104041EA10108A494839086007E08848AE
:103410004838006820F47C50854948390860844861
:1034200018300068B4F8B410C1F30B0108438049A8
:10343000183101E005E001E0086002E0A84600E084
:10344000A8460122D4E9000110400021134658404B
:103450004940084330D1E06F18281AD005DC48B144
:10346000082808D0102817D10CE0202812D02828CE
:1034700012D110E012E0012104F1080002F01CF961
:1034800005460BE0012104F1280002F0C7F90546CA
:1034900004E003E002E001E0012500BF00BF55B9F0
:1034A0006348001F006820F03800E16F084360495E
:1034B000091F086000E0A8460222D4E9000110407C
:1034C0000021134658404940084329D1A06F0628DF
:1034D00016D2DFE800F003040B12131412E00121EE
:1034E00004F1080002F0E8F805460BE0012104F1C0
:1034F000280002F093F9054604E003E002E001E051
:10350000012500BF00BF55B94948001F006820F0E1
:103510000700A16F08434649091F086000E0A8465C
:103520000423D4E9001019400020594040400143D1
:1035300029D1D4F89400062816D2DFE800F003045D
:103540000B12131412E0012104F1080002F0B4F888
:1035500005460BE0012104F1280002F05FF9054661
:1035600004E003E002E001E0012500BF00BF4DB927
:103570002F48006820F00700D4F8941008432C4925
:10358000086000E0A8462023D4E90001184000218B
:1035900058404940084337D1D4F89000B0F1405F1B
:1035A0001ED007DC68B1B0F1805F0BD0B0F1005FD6
:1035B00019D10EE0B0F1804F13D0B0F1A04F12D16D
:1035C00010E012E0002104F1080002F075F8054651
:1035D0000BE0022104F1280002F020F9054604E086
:1035E00003E002E001E0012500BF00BF5DB9104823
:1035F000001F006820F0E040D4F8901008430C4908
:10360000091F086000E0A8464023D4E900101940D3
:1036100000205940404001433CD1D4F89C00B0F513
:10362000406F25D00EDCA0B1B0F5806F12D005E060
:103630005844025800480258FFFCFF0FB0F5006FD5
:1036400019D10EE0B0F5805F13D0B0F5A05F12D1B4
:1036500010E012E0002104F1080002F02DF8054608
:103660000BE0022104F1280002F0D8F8054604E03E
:1036700003E002E001E0012500BF00BF4DB9FE48B4
:10368000006820F4E050D4F89C100843FA49086020
:1036900000E0A8468023D4E90010194000205940DA
:1036A0004040014335D1D4F8A000B0F5C04F1ED042
:1036B00007DC68B1B0F5005F0BD0B0F5804F19D1D1
:1036C0000EE0B0F5004F13D0B0F5204F12D110E04E
:1036D00012E0002104F1080001F0EEFF05460BE0C6
:1036E000022104F1280002F099F8054604E003E005
:1036F00002E001E0012500BF00BF4DB9DE480068CF
:1037000020F46040D4F8A0100843DB49086000E0D2
:10371000A8460823D4E90010194000205940404031
:10372000014317D1D4F88400B0F5805F07D102219E
:1037300004F1280002F072F808B14FF00108CE48F9
:10374000001F006820F44050D4F884100843CA4990
:10375000091F08601023D4E90010194000205940C7
:103760004040014315D1D4F89800B0F5807F07D1CF
:10377000022104F1280002F051F808B14FF00108CD
:10378000BD48006820F44070D4F898100843BA4946
:1037900008604FF40022D4E90001104000211346D4
:1037A00058404940084327D1D4F8A40030B1B0F5BF
:1037B000803F0AD0B0F5003F0FD10DE0002104F1A9
:1037C000080001F079FF054609E0022104F1280014
:1037D00002F024F8054602E001E0012500BF00BF29
:1037E0004DB9A548006820F44030D4F8A41008432F
:1037F000A149086000E0A8464FF48023D4E9000105
:10380000184000215840494008432DD1D4F8880081
:10381000B0F5801F06D0B0F5001F0CD0B0F5401FEA
:1038200011D10FE094482C38006840F400309249E0
:103830002C39086009E0012104F1280001F0EEFFB5
:10384000054602E001E0012500BF00BF5DB98A48DE
:10385000001F006820F44010D4F8881008438649FF
:10386000091F086000E0A8464FF48032D4E9000147
:1038700010400021134658404940084325D1206D8F
:1038800018B1B0F5803F10D108E07B482C380068B3
:1038900040F4003078492C39086008E0022104F136
:1038A000080001F009FF054601E0012500BF00BF47
:1038B00055B971480C38006820F48030216D0843F8
:1038C0006D490C39086000E0A8464FF00052D4E979
:1038D000001011400020134659404040014307D1D9
:1038E000022104F1280001F099FF08B14FF001080E
:1038F0004FF40033D4E900011840002158404940FA
:10390000084329D1D4F88000A0B1B0F5807F06D05B
:10391000B0F5007F0CD0B0F5407F0CD109E05648DF
:103920002C38006840F4003053492C39086004E01A
:1039300003E002E001E0012500BF00BF5DB94E4891
:10394000001F006820F44070D4F8801008434A49F2
:10395000091F086000E0A8464FF48012D4E9001067
:1039600011400020134659404040014309D14248CC
:103970000838006820F00040616F08433E4908396C
:1039800008604FF08052D4E9001011400020134627
:103990005940404001430AD137484838006820F474
:1039A0008040D4F8B81008433349483908604FF4D0
:1039B0000012D4E900101140002013465940404045
:1039C000014309D12C480838006820F08070E16E6E
:1039D00008432949083908604FF08042D4E90010B3
:1039E00011400020134659404040014311D100BF0F
:1039F00021484838006820F400401F4948390860D1
:103A000008460068D4F8BC1008431B4948390860D0
:103A100000BF4FF00042D4E90010114000201346CF
:103A200059404040014309D113480C38006820F048
:103A30004050616D084310490C3908604FF4000292
:103A4000D4E9001011400020134659404040014382
:103A50000AD10948001F006820F44000D4F88C10F7
:103A600008430549091F08600123002160681840C8
:103A700001224940504001E058440258014306D118
:103A800004F1080001F018FE054605B1A84602221F
:103A900000216068104049405040014307D1012196
:103AA00004F1080001F008FE054605B1A84604230C
:103AB000002061681940042240405140084307D16A
:103AC000022104F1080001F0F7FD054605B1A84602
:103AD00008230021606818400822494050400143F3
:103AE00006D104F1280001F099FE054605B1A8466B
:103AF000102200216068104049405040014307D126
:103B0000012104F1280001F089FE054605B1A8460F
:103B1000202200206168114040405140084307D1F5
:103B2000022104F1280001F079FE054605B1A846FE
:103B3000B8F1000F02D10020BDE8F0810120FBE7C1
:103B40002DE9F04104460D4614B90120BDE8F0818D
:103B5000BD48006800F00F00A8420ED2BA480068C5
:103B600020F00F002843B84908600846006800F0BC
:103B70000F00A84201D00120E8E7207800F00400FF
:103B800004280ED1B1492069096801F0700188420A
:103B900007D9AE48006820F0700021690843AB499E
:103BA0000860207800F00800082811D1A749091DF5
:103BB0006069096801F07001884209D9A348001DB5
:103BC000006820F0700061690843A049091D086081
:103BD000207800F01000102811D19C49091DA0691F
:103BE000096801F4E061884209D99848001D00681D
:103BF00020F4E060A16908439449091D0860207819
:103C000000F02000202811D190490831E0690968AE
:103C100001F07001884209D98C480830006820F012
:103C20007000E1690843894908310860207800F094
:103C3000020002280ED18549E068096801F00F01F1
:103C4000884207D98148006820F00F00E1680843E6
:103C50007E490860207800F00100002850D07B48A1
:103C6000006820F47060A1680843784908606068C3
:103C7000022807D1754818380068C0F34040F8B9E9
:103C8000012063E76068032807D17048183800688E
:103C9000C0F34060A0B9012058E76068012807D14F
:103CA0006A4818380068C0F3002048B901204DE781
:103CB000664818380068C0F3800008B9012045E75D
:103CC00062480838006820F00700616808435F49CF
:103CD00008390860FEF7E4FE064608E0FEF7E0FE5D
:103CE000801B41F28831884201D903202EE75748D2
:103CF0000838006800F038006168B0EBC10FEDD102
:103D0000207800F0020002280ED15049E0680968CE
:103D100001F00F01884207D24C48006820F00F00E4
:103D2000E1680843494908604748006800F00F000F
:103D3000A8420ED94448006820F00F0028434249A9
:103D400008600846006800F00F00A84201D001207A
:103D5000FCE6207800F0040004280ED13B492069DD
:103D6000096801F07001884207D23848006820F0E5
:103D700070002169084335490860207800F0080088
:103D8000082811D13149091D6069096801F07001E5
:103D9000884209D22D48001D006820F0700061693A
:103DA00008432A49091D0860207800F010001028F7
:103DB00011D12649091DA069096801F4E061884212
:103DC00009D22248001D006820F4E060A169084380
:103DD0001E49091D0860207800F02000202811D11C
:103DE0001A490831E069096801F07001884209D276
:103DF00016480830006820F07000E1690843134954
:103E00000831086000F02CF810490968C1F303215B
:103E10000F4A515C01F01F0120FA01F70B480068BE
:103E200000F00F001146085C00F01F0027FA00F0B8
:103E3000084908600848076008480068FEF772FEF5
:103E40008046404682E60000002000521844025896
:103E5000B6600008100000200C00002004000020C4
:103E6000F0B5824E366806F0380636B1082E15D009
:103E7000102E15D0182E7DD114E07C4E103E3668E1
:103E8000C6F3401646B1794E103E3668C6F3C107F8
:103E9000774E26FA07F000E07548E5E07548E3E064
:103EA0007548E1E0714E1836366806F003046F4E2F
:103EB00018363668C6F305116C4E1C36366806F0A7
:103EC00001056A4E24363668C6F3CC0616FB05F6A5
:103ED00001EE106AB8EE410A002971D024B1012C1C
:103EE00050D0022C6DD16DE0604E103E3668C6F3A6
:103EF00040163EB35D4E103E3668C6F3C1075C4EB9
:103F000026FA07F301EE103AF8EE411A01EE101A04
:103F1000B8EE411A81EE812A9FED581AC0EE011ABF
:103F2000524E20363668C6F3080601EE106AB8EE27
:103F3000411A31EE811AF7EE001A31EE211A62EEC3
:103F4000010A1EE001EE101AB8EE411ADFED4C1A1C
:103F500081EE812A9FED491AC0EE011A434E2036A8
:103F60003668C6F3080601EE106AB8EE411A31EE63
:103F7000811A00E076E0F7EE001A31EE211A62EEC7
:103F8000010A5BE001EE101AB8EE411A9FED3D2ADE
:103F9000C2EE011A9FED391A80EE012A334E203607
:103FA0003668C6F3080601EE106AB8EE411A32EE22
:103FB000011AB7EE002A31EE021A61EE810A3DE0E5
:103FC0004EE01DE001EE101AB8EE411ADFED2E1A98
:103FD00081EE812A9FED291AC0EE011A234E203668
:103FE0003668C6F3080601EE106AB8EE411A31EEE3
:103FF000811AF7EE001A31EE211A62EE010A1DE075
:1040000001EE101AB8EE411A9FED1E2AC2EE011AF7
:104010009FED1A1A80EE012A144E20363668C6F338
:10402000080601EE106AB8EE411A32EE011AB7EE38
:10403000002A31EE021A61EE810A00BF00BF0B4E6A
:1040400020363668C6F34626721C01EE102AB8EEFA
:10405000411AC0EE811ABCEEE11A11EE100A00E01E
:10406000002001E0034800BF00BFF0BD104402582B
:104070000090D00300093D0000127A0000000046C5
:104080000024744C0024744A0024F44A2DE9F047BB
:10409000044614B90120BDE8F087207800F0010043
:1040A000002870D0FA48006800F03808F848183046
:1040B000D0F80090B8F1100F06D0B8F1180F0FD15A
:1040C00009F0030002280BD1F14810380068C0F352
:1040D000404000286AD06068002867D10120DAE7F4
:1040E00000BF6068B0F5803F08D1E948103800682B
:1040F00040F48030E649103908602EE0606868B905
:10410000E3481038006820F48030E1491039086035
:104110000846006820F4802008601EE06068B0F562
:10412000A02F0DD1DA481038006840F48020D8491B
:10413000103908600846006840F4803008600CE0E0
:10414000D3481038006820F48030D1491039086015
:104150000846006820F48020086000BF606898B1BD
:10416000FEF79EFC054606E0FEF79AFC401B64281D
:1041700001D903208FE7C64810380068C0F34040DB
:104180000028F1D012E012E0FEF78AFC054606E0B6
:10419000FEF786FC401B642801D903207BE7BC485E
:1041A00010380068C0F340400028F1D100BF2078EB
:1041B00000F00200022874D1B548006800F0380809
:1041C000B3481830D0F80090B8F1000F05D0B8F11E
:1041D000180F56D109F00300D0BBAD481038006865
:1041E000C0F3800018B1E06808B9012053E7A8487F
:1041F0001038006820F01900E1680843A44910391C
:104200000860FEF74DFC054606E0FEF749FC401B42
:10421000022801D903203EE79D4810380068C0F30A
:1042200080000028F1D000BFFEF734FC41F203010A
:1042300088421AD8206940280BD195480C3800686C
:1042400020F47C3040F4003091490C39086017E0CC
:1042500017E08F480C38006820F47C30216940EA70
:1042600001308B490C3908600AE089480C38006835
:1042700020F0FE40217C40EA016085490C3908604D
:1042800066E0E06888B382481038006820F01900C2
:10429000E16808437E4910390860FEF701FC0546D5
:1042A00007E056E0FEF7FCFB401B022801D9032083
:1042B000F1E6774810380068C0F380000028F1D09C
:1042C00000BFFEF7E7FB41F2030188421AD82069DC
:1042D00040280BD16E480C38006820F47C3040F444
:1042E00000306B490C39086017E017E068480C385B
:1042F000006820F47C30216940EA013064490C39BF
:1043000008600AE062480C38006820F0FE40217C1A
:1043100040EA01605E490C39086019E05C481038D9
:10432000006820F001005A4910390860FEF7B8FB18
:10433000054606E0FEF7B4FB401B022801D9032026
:10434000A9E6534810380068C0F380000028F1D176
:1043500000BF207800F0100010287CD14C48006885
:1043600000F038084A481830D0F80090B8F1080F2B
:1043700006D0B8F1180F3DD109F00300012839D15A
:10438000434810380068C0F3002020B1E06980285D
:1043900001D001207FE600BFFEF77CFB41F2030164
:1043A00088421AD8206A20280AD139480C38006877
:1043B00020F0F84040F0804035490C39086018E0A2
:1043C00033480C38006820F0F84094F8201040EA98
:1043D00081602F490C3908600BE02D48001F0068F0
:1043E00020F07C5094F8201040EA01602849091F11
:1043F000086066E0E06978B325481038006840F04E
:104400008000234910390860FEF74AFB054606E0A4
:10441000FEF746FB401B022801D903203BE61C485F
:1044200010380068C0F300200028F1D000BFFEF76C
:1044300031FB41F2030188421CD8206A20280CD1AC
:1044400013480C38006820F0F84040F080401049D4
:104450000C3908601AE035E01CE00D480C380068A3
:1044600020F0F84094F8201040EA816008490C39A7
:1044700008600BE00648001F006820F07C5094F8AC
:10448000201040EA01600249091F086019E000009D
:1044900010440258FA48006820F08000F84908608B
:1044A000FEF7FEFA054606E0FEF7FAFA401B022880
:1044B00001D90320EFE5F2480068C0F3002000288E
:1044C000F2D100BF207800F00800082836D16069DA
:1044D000D0B1EB487430006840F00100E849743115
:1044E0000860FEF7DDFA054606E0FEF7D9FA401B44
:1044F000022801D90320CEE5E14874300068C0F3FA
:1045000040000028F1D019E0DD487430006820F048
:104510000100DB4974310860FEF7C2FA054606E087
:10452000FEF7BEFA401B022801D90320B3E5D448A8
:1045300074300068C0F340000028F1D1207800F00A
:104540002000202830D1A069B8B1CD48006840F4DF
:104550008050CB490860FEF7A3FA054606E0FEF757
:104560009FFA401B022801D9032094E5C448006843
:10457000C0F340300028F2D016E0C148006820F4B3
:104580008050BF490860FEF78BFA054606E0FEF74B
:1045900087FA401B022801D903207CE5B84800684F
:1045A000C0F340300028F2D1207800F00400042845
:1045B0007DD1B448006840F48070B2490860FEF7CD
:1045C0006FFA054606E0FEF76BFA401B642801D936
:1045D000032060E5AB48006800F480700028F2D04A
:1045E00000BFA068012808D1A5487030006840F0DD
:1045F0000100A349703108602DE0A06868B9A048A7
:104600007030006820F001009D4970310860084654
:10461000006820F0040008601DE0A06805280DD1A6
:1046200097487030006840F0040095497031086088
:104630000846006840F0010008600CE090487030C7
:10464000006820F001008E4970310860084600685B
:1046500020F00400086000BFA068A0B1FEF720FAB7
:10466000054608E0FEF71CFA401B41F288318842FB
:1046700001D903200FE5824870300068C0F3400084
:104680000028EFD013E0FEF70BFA054608E0FEF72E
:1046900007FA401B41F28831884201D90320FAE42D
:1046A000774870300068C0F340000028EFD1606A9E
:1046B00000287DD072481030006800F038001828BB
:1046C00077D0606A022875D16D48006820F080704C
:1046D0006B490860FEF7E4F9054606E0FEF7E0F9ED
:1046E000401B022801D90320D5E465480068C0F3C7
:1046F00040600028F2D100BFD4E90A1041EA00105E
:104700005F492831096840F2F332914308435C491C
:1047100028310860208E401EC0F30800616B491EDE
:104720004FF47E4202EA41210843218F491ED20103
:1047300002EA014108433C21095D491E120202EAD6
:10474000016108434E493031086000BF081F00680E
:1047500020F00100091F08604948343000684FF616
:10476000F8718843A16C40EAC100454934310860C2
:1047700043482C30006820F00C00216C084340496D
:104780002C3108600846006820F00200616C084384
:104790003B492C3108600846006840F480300860CE
:1047A0000846006840F4003008600846006802E0EF
:1047B00093E038E01FE040F480200860084600687D
:1047C00040F0010008602E48006840F080702C49DD
:1047D0000860FEF765F9054606E0FEF761F9401B43
:1047E000022801D9032056E425480068C0F3406040
:1047F0000028F2D071E02248006820F08070204943
:104800000860FEF74DF9054606E0FEF749F9401B42
:10481000022801D903203EE419480068C0F3406033
:104820000028F2D159E01648283007681448303083
:104830000668606A012821D007F00301A06A81425E
:104840001CD1C7F30511E06A884217D1C6F30801ED
:10485000206B401E814211D1606B401EC6F3462181
:1048600088420BD1A06B401EC6F30641884205D199
:10487000E06B401EC6F30661884205D001200AE4C1
:10488000004402580048025815480068C0F3CC079D
:10489000A06CB84221D012480838006820F001000E
:1048A0000F4908390860FEF7FBF8054600BFFEF720
:1048B000F7F8401BFBD00A4800684FF6F8718843B0
:1048C000A16C40EAC1000649086005480838006844
:1048D00040F0010002490839086000204AE4000065
:1048E00034440258704700002DE9F05F0446206808
:1048F00007692068D0F8148007EA08052068D0F816
:1049000008904FF0000A94F88160206800F1300BA5
:1049100008F40060B0F5006F0ED107F00800082819
:104920000AD12068806940F40060216888612046CF
:1049300000F06FFBBDE8F09F05F0400070B905F096
:10494000200058B905F00400042807D12046616F03
:1049500088472046216F88474FF0010A05F0400044
:1049600050B905F0010038B105F0040020B9204627
:10497000216F88474FF0010A05F0200058B905F073
:104980000200022807D105F0040020B92046616F1B
:1049900088474FF0010ABAF1000F00D0CAE705F0CE
:1049A0000800082863D12068806940F00800216869
:1049B00088612068806940F0100021688861206863
:1049C000806940F40060216888612068006920F0F7
:1049D0000800216808612068806800F4404038BB06
:1049E00022E0E0680F2807D92068006B616E08603C
:1049F000606E001D606612E0E068072807D9BBF80A
:104A00000000616E0880606E801C606607E02068B0
:104A100090F83000616E0870606E401C6066B4F8FB
:104A20006A00401EA4F86A00B4F86A000028D8D1D1
:104A3000204600F0ADFF012084F88100D4F8840006
:104A400018B12046FFF74EFF74E7052E03D120462C
:104A500000F00BFD0AE0042E03D1204600F0CEFA50
:104A600004E0032E02D1204600F0FEFC62E705F4CC
:104A7000587000287DD005F0400058B1D4F884006B
:104A800040F00400C4F884002068806940F04000D1
:104A90002168886105F4007058B1D4F8840040F0B2
:104AA0000100C4F884002068806940F40070216827
:104AB000886105F4807058B1D4F8840040F0080093
:104AC000C4F884002068806940F48070216888619F
:104AD00005F0200058B1D4F8840040F08000C4F8FC
:104AE00084002068806940F0200021688861D4F843
:104AF0008400A8B32068006820F0010021680860E5
:104B00002068006940F26B3188432168086109F42C
:104B10004040B0F5404F25D12068806820F44040E7
:104B200021688860E06F60B11348E16F0865E06F4D
:104B3000FCF7B6FA28B1D4F8840040F04000C4F87D
:104B40008400A06F60B10C48A16F0865A06FFCF7EE
:104B5000A7FA28B1D4F8840040F04000C4F88400DB
:104B600006E006E0012084F881002046FFF7BAFE47
:104B7000E0E600BFDEE60000675A000870B50446B4
:104B80000CB9012070BD606A00B900BF0021A162AC
:104B90006349206888420CD062492068884208D066
:104BA00061492068884204D0E0680F2801D90120BB
:104BB000E8E7204600F09BFF0546594920688842F7
:104BC00009D058492068884205D057492068884252
:104BD00001D0082D0DD852492068884207D051498C
:104BE0002068884203D050492068884203D1102DA4
:104BF00001D90120C6E794F8810028B9002084F883
:104C00008000204600F092F8022084F8810020689D
:104C1000006820F00100216808602068806800F4C6
:104C2000F816A069B0F1806F11D16068B0F5800FFF
:104C300001D1A06B28B1606848B9A06BB0F1805F6A
:104C400005D12068006840F48050216808606068E1
:104C500000F48000B0F5800F0BD1E068072808D37E
:104C60002068006820F48070216D08432168086086
:104C700005E02068006820F4807021680860A16A5F
:104C8000E06908433043E16B0843E1680843216869
:104C90008860616A606B0843A16B0843A16908439F
:104CA0002169084361690843216A08436168084330
:104CB000E16C0843A1680843A16C0843A16D084357
:104CC0002168C860606878B92068806820F4C050A6
:104CD00040F40060216888602068806820F4C0602B
:104CE00040F48060216888602068006D20F0010039
:104CF00021680865606800F48000B0F5800F07D176
:104D00002068C06820F00040616D08432168C860D9
:104D10000020C4F88400012084F88100002031E7DD
:104D20000030014000380040003C004010B5B8B0F1
:104D30000446142132A8FBF796FBC02102A8FBF71A
:104D400092FB30492068884259D181140020CDE976
:104D500002101A9002A8FEF73FF808B1FCF78CF990
:104D600000BF2948006840F4805027490860084681
:104D7000006800F48050019000BF00BF00BF2248CF
:104D80001038006840F001001F49103908600846DB
:104D9000006800F00100019000BF00BFE0203290E9
:104DA000022033900020349035900520369032A9AF
:104DB0001648FDF76BFD1648164908602520486027
:104DC000002114488160C1604FF4806101610021BD
:104DD00041618161C16101624162FDF7ADF808B1D5
:104DE000FCF74AF900BF0B48E067846300BF00226C
:104DF00005212320FDF76EFF2320FDF757FF38B074
:104E000010BD000000300140F0440258000002587C
:104E1000280002405C0100202DE9F04104460E46C6
:104E2000154694F88100012807D000BF002084F8BF
:104E3000800000BF0220BDE8F08106B135B900BF97
:104E4000002084F8800000BF0120F4E700BF94F840
:104E50008000012801D10220EDE7012084F88000C4
:104E600000BF0420603484F8210000206062666086
:104E7000258165812061606120806080603CA06840
:104E8000B0F5C02F06D12068006820F400602168CA
:104E9000086007E02068C06820F4C02040F480204B
:104EA0002168C860E0680F2804D9E06F8069B0F518
:104EB000804F0CD1E068072810D9E06F8069B0F509
:104EC000005F0BD0E06F8069B0F5804F06D000BF67
:104ED000002084F8800000BF0120ACE720688068D3
:104EE00020F4804021688860E068072816D8E06FC9
:104EF0008069B0F5005F05D1B4F86A00401C40102D
:104F0000A4F86A00E06F8069B0F5804F14D1B4F85E
:104F10006A00C01C8010A4F86A000DE0E0680F2849
:104F20000AD8E06F8069B0F5804F05D1B4F86A0007
:104F3000401C4010A4F86A002D48E16F08642D4819
:104F4000E16FC8632C48E16FC8640020E16F086519
:104F5000B4F86A30276807F13001626EE06FFDF740
:104F60007BFA78B1D4F8840040F01000C4F88400D3
:104F7000012084F8810000BF002084F8800000BF79
:104F8000012058E7E06FC069B0F5807F06D1206846
:104F900040686FF30F002168486006E020684068B1
:104FA0006FF30F002843216848602068806840F450
:104FB0008040216888602068006940F45070216852
:104FC00008612068006840F001002168086060689E
:104FD000B0F5800F05D12068006840F400702168AA
:104FE000086000BF002084F8800000BF00BF22E7F7
:104FF000B35A0008C15A0008835A000810B5044685
:1050000001F018F801200149086010BD18000020C7
:10501000704770472DE9FF4F85B004469846129EB1
:10502000206820300490206800F1300BE06B4009CC
:10503000401C80B20290FDF733FD03904746454681
:1050400094F88100012803D0022009B0BDE8F08F58
:10505000069820B1079810B1B8F1000F01D10120D6
:10506000F3E700BF94F88000012801D10220ECE7AB
:10507000012084F8800000BF052084F88100002012
:10508000C4F8840007986066A4F86A80A4F8688071
:105090000698E065A4F86280A4F86080002020678C
:1050A00060672068C06820F4C0202168C860EB49B0
:1050B0002068884207D0EA492068884203D0E9493D
:1050C0002068884202D14FF0100A01E04FF0080A30
:1050D000206840686FF30F0040EA080021684860CC
:1050E0002068006840F00100216808606068B0F541
:1050F000800F05D12068006840F4007021680860C6
:10510000E0680F2869D94FEA9A0A61E0206840698F
:1051100000F00200022812D18FB107EB0A00A8426A
:105120000DD9E06D006821680862E06D001DE06542
:10513000B4F86200401EA4F86200B4F862702068FF
:10514000D0F814903DB32068406900F0010070B1C0
:105150002068006B616E0860606E001D6066B4F8C8
:105160006A00401EA4F86A00B4F86A5030E0029861
:10517000854211DA09F4004070B12068006B616E5D
:105180000860606E001D6066B4F86A00401EA4F8F6
:105190006A00B4F86A501BE0FDF782FC0399401ADC
:1051A000B04201D3701C00B996B9204600F0F0FB64
:1051B000D4F8840040F48070C4F88400012084F89E
:1051C000810000BF002084F8800000BF03203CE77E
:1051D000002F9BD1002D99D11EE1E06807287CD9D2
:1051E0004FEA5A0A7AE02068406900F0020002287B
:1051F00011D187B107EB0A00A8420CD954F85C0F13
:105200000188049801802068801C2060E088401E8E
:10521000E080E7885C3C2068D0F81490002D5DD0D9
:105220002068406900F0010068B1BBF8000054F844
:10523000641F08802068801C2060E088401EE08099
:10524000E588643C4AE00298854217DA09F4004098
:10525000A0B1BBF8000054F8641F08802068801CCF
:105260002060BBF80000216808802068801C206056
:10527000E088801EE080E588643C2FE0012D10D19D
:1052800009F4005068B1BBF8000054F8641F0880AE
:105290002068801C2060E088401EE080E588643C37
:1052A0001CE0FDF7FDFB0399401AB04201D3701CCE
:1052B00000B99EB9204600F06BFBD4F8840040F49E
:1052C0008070C4F88400012084F8810000BF0020B1
:1052D00084F8800000BF0320B7E604E0002F82D1ED
:1052E000002D80D198E092E02068406900F0020033
:1052F000022813D197B107EB0A00A8420ED9E06D3E
:105300000078216881F82000E06D401CE065B4F869
:105310006200401EA4F86200B4F862702068D0F801
:105320001490002D73D02068406900F0010078B11E
:10533000206890F83000616E0870606E401C6066F6
:10534000B4F86A00401EA4F86A00B4F86A505EE03F
:10535000029885422ADA09F4004038B3206890F8B0
:105360003000616E0870606E401C6066206890F8C6
:105370003000616E0870606E401C6066206890F8B6
:105380003000616E0870606E401C6066206890F8A6
:105390003000616E0870606E401C6066B4F86A0090
:1053A000001FA4F86A00B4F86A5030E0042D12D24D
:1053B00009F4C04078B1206890F83000616E087040
:1053C000606E401C6066B4F86A00401EA4F86A0073
:1053D000B4F86A501BE0FDF763FB0399401AB04232
:1053E00001D3701C00B996B9204600F0D1FAD4F868
:1053F000840040F48070C4F88400012084F88100A7
:1054000000BF002084F8800000BF03201DE6002FAD
:105410007FF46AAF002DFBD10398334600220821A8
:105420000090204600F070FB28B1D4F8840040F0D2
:105430002000C4F88400204600F0AAFA012084F875
:10544000810000BF002084F8800000BFD4F88400F1
:1054500008B10120F9E50020F7E500000030014027
:1054600000380040003C00407047704770B504466B
:105470002546681EB0F1807F01D301200FE0681E31
:105480004FF0E02148610F214FF0FF3000F06AFC3F
:1054900000204FF0E021886107200861002070BDE6
:1054A00000BFFEE71FB5002000900190029003901E
:1054B000FDF792FB01208DF8000000208DF801001F
:1054C0004FF00060019010208DF8080000208DF84A
:1054D000090001208DF80A0005208DF80B0000203E
:1054E0008DF80C008DF80D0001208DF80E000020C5
:1054F0008DF80F006846FDF741FB0420FDF782FBA5
:105500001FBD000008B500BF0A48006840F0010058
:10551000084908600846006800F00100009000BFDC
:1055200000BF002205210C20FDF7D4FB0C20FDF765
:10553000BDFB08BDD844025800B587B0142102A8AD
:10554000FAF791FF00BF3C48006840F080003A49FC
:1055500008600846006800F08000019000BF00BFAE
:1055600000BF0846006840F0010008600846006877
:1055700000F00100019000BF00BF00BF08460068B6
:1055800040F0040008600846006800F00400019044
:1055900000BF00BF00BF0846006840F0020008607E
:1055A0000846006800F00200019000BF00BF012221
:1055B00010212248FDF768FA0022A0212048FDF7BB
:1055C00063FA00224FF480711E48FDF75DFA102047
:1055D00002900120039000200490059002A9174832
:1055E000FDF754F9102002904FF4041003900020AE
:1055F000049002A91248FDF749F9A0200290012069
:10560000039000200490059002A90D48FDF73EF993
:105610004FF48070029001200390002004900590C8
:1056200002A90848FDF732F9002206210A20FDF7F9
:1056300051FB07B000BD0000E044025800000258D2
:10564000000802580004025810B5164816490860B0
:105650004FF4800048600021134881600721C16039
:10566000002101614FF080714161890081614FF03B
:105670004051C1610021016241628162C1624FF00B
:105680008041416300218163C1630164416481649D
:10569000C164016541658165FFF770FA08B1FBF7E8
:1056A000EBFC10BD00300140D400002000BFFEE73D
:1056B00000BFFEE7704700002DE9F04104460E46AA
:1056C00000275548006800F00300032802D101209C
:1056D000BDE8F08150482838006820F080604E49CD
:1056E00028390860FDF7DCF9054606E0FDF7D8F932
:1056F000401B022801D90320EAE747482838006800
:10570000C0F3C0600028F1D100BF4348006820F416
:105710007C30216840EA01303F490860A088401E83
:10572000C0F30800A168491E4FF47E4202EA4121FD
:105730000843A189491ED20102EA01410843217CA4
:10574000491E120202EA0161084333491031086020
:1057500000BF3148001D006820F0C00061690843A7
:105760002D49091D08600846006820F02000A16945
:1057700008432949091D08600846006820F0100008
:1057800008602548143000684FF6F8718843E169D5
:1057900040EAC1002049143108601F48001D00681C
:1057A00040F010001C49091D08602EB90846006829
:1057B00040F40020086012E0012E08D11648001DB8
:1057C000006840F480101449091D086007E0124881
:1057D000001D006840F400100F49091D08600E48C4
:1057E0002838006840F080600B4928390860FDF7D0
:1057F00057F9054606E0FDF753F9401B022801D989
:10580000032065E7044828380068C0F3C06000281A
:10581000F1D038465CE70000284402582DE9F041F9
:1058200004460E4600275548006800F00300032890
:1058300002D10120BDE8F08150482838006820F0EE
:1058400080504E4928390860FDF72AF9054606E0E0
:10585000FDF726F9401B022801D90320EAE7474853
:1058600028380068C0F340700028F1D100BF4348D9
:10587000006820F07C70218840EA01503F490860B0
:10588000A088401EC0F30800A168491E4FF47E4264
:1058900002EA41210843A189491ED20102EA0141DD
:1058A0000843217C491E120202EA01610843334980
:1058B0001831086000BF3148001D006820F44060C6
:1058C000616908432D49091D08600846006820F4F5
:1058D0000070A16908432949091D0860084600684D
:1058E00020F48070086025481C3000684FF6F8717D
:1058F0008843E16940EAC10020491C3108601F4823
:10590000001D006840F480701C49091D08602EB914
:105910000846006840F48000086012E0012E08D1BB
:105920001648001D006840F400001449091D086075
:1059300007E01248001D006840F080700F49091D03
:1059400008600E482838006840F080500B4928391C
:105950000860FDF7A5F8054606E0FDF7A1F8401B35
:10596000022801D9032065E7044828380068C0F3FD
:1059700040700028F1D038465CE700002844025807
:1059800010B50248FEF7B0FF10BD0000D4000020A3
:10599000026851690268926942F0080203689A61DC
:1059A0000268926942F0100203689A610268126804
:1059B00022F0010203681A600268126940F26F3334
:1059C0009A4303681A610268926822F440420368AD
:1059D0009A6090F88120042A0ED001F020025AB17A
:1059E000D0F8842042F08002C0F8842002689269D6
:1059F00042F0200203689A6190F88120032A0ED0B9
:105A000001F040025AB1D0F8842042F00402C0F8FC
:105A100084200268926942F0400203689A6101F4AE
:105A200000725AB1D0F8842042F00102C0F88420FC
:105A30000268926942F4007203689A6101F480720C
:105A40005AB1D0F8842042F00802C0F884200268DD
:105A5000926942F4807203689A610022A0F8622081
:105A6000A0F86A20704770B50546AC6B0020623420
:105A7000208120800120E077623C2046FEF732FF43
:105A800070BD70B50546AC6B2846FBF7D5FC022807
:105A90000ED02046FFF77CFFD4F8840040F01000C1
:105AA000C4F88400012084F881002046FEF71AFF24
:105AB00070BD70B50446A56B2846FFF7A9FA70BD06
:105AC00070B50546AC6B94F8810007280ED0E06FE6
:105AD000C069B0F5807F03D12046FFF78FFA05E05B
